{
  "_format": "hh-sol-artifact-1",
  "contractName": "SolashiNFT",
  "sourceName": "contracts/SolashiNFT.sol",
  "abi": [
    {
      "inputs": [
        {
          "internalType": "contract MinimalForwarder",
          "name": "forwarder",
          "type": "address"
        }
      ],
      "stateMutability": "nonpayable",
      "type": "constructor"
    },
    {
      "anonymous": false,
      "inputs": [
        {
          "indexed": true,
          "internalType": "address",
          "name": "owner",
          "type": "address"
        },
        {
          "indexed": true,
          "internalType": "address",
          "name": "approved",
          "type": "address"
        },
        {
          "indexed": true,
          "internalType": "uint256",
          "name": "tokenId",
          "type": "uint256"
        }
      ],
      "name": "Approval",
      "type": "event"
    },
    {
      "anonymous": false,
      "inputs": [
        {
          "indexed": true,
          "internalType": "address",
          "name": "owner",
          "type": "address"
        },
        {
          "indexed": true,
          "internalType": "address",
          "name": "operator",
          "type": "address"
        },
        {
          "indexed": false,
          "internalType": "bool",
          "name": "approved",
          "type": "bool"
        }
      ],
      "name": "ApprovalForAll",
      "type": "event"
    },
    {
      "anonymous": false,
      "inputs": [
        {
          "indexed": true,
          "internalType": "address",
          "name": "from",
          "type": "address"
        },
        {
          "indexed": true,
          "internalType": "address",
          "name": "to",
          "type": "address"
        },
        {
          "indexed": true,
          "internalType": "uint256",
          "name": "tokenId",
          "type": "uint256"
        }
      ],
      "name": "Transfer",
      "type": "event"
    },
    {
      "inputs": [
        {
          "internalType": "address",
          "name": "to",
          "type": "address"
        },
        {
          "internalType": "uint256",
          "name": "tokenId",
          "type": "uint256"
        }
      ],
      "name": "approve",
      "outputs": [],
      "stateMutability": "nonpayable",
      "type": "function"
    },
    {
      "inputs": [
        {
          "internalType": "address",
          "name": "owner",
          "type": "address"
        }
      ],
      "name": "balanceOf",
      "outputs": [
        {
          "internalType": "uint256",
          "name": "",
          "type": "uint256"
        }
      ],
      "stateMutability": "view",
      "type": "function"
    },
    {
      "inputs": [
        {
          "internalType": "uint256",
          "name": "tokenId",
          "type": "uint256"
        }
      ],
      "name": "getApproved",
      "outputs": [
        {
          "internalType": "address",
          "name": "",
          "type": "address"
        }
      ],
      "stateMutability": "view",
      "type": "function"
    },
    {
      "inputs": [
        {
          "internalType": "address",
          "name": "owner",
          "type": "address"
        },
        {
          "internalType": "address",
          "name": "operator",
          "type": "address"
        }
      ],
      "name": "isApprovedForAll",
      "outputs": [
        {
          "internalType": "bool",
          "name": "",
          "type": "bool"
        }
      ],
      "stateMutability": "view",
      "type": "function"
    },
    {
      "inputs": [
        {
          "internalType": "address",
          "name": "forwarder",
          "type": "address"
        }
      ],
      "name": "isTrustedForwarder",
      "outputs": [
        {
          "internalType": "bool",
          "name": "",
          "type": "bool"
        }
      ],
      "stateMutability": "view",
      "type": "function"
    },
    {
      "inputs": [
        {
          "internalType": "address",
          "name": "to",
          "type": "address"
        },
        {
          "internalType": "uint256",
          "name": "tokenId",
          "type": "uint256"
        },
        {
          "internalType": "string",
          "name": "uri",
          "type": "string"
        }
      ],
      "name": "mint",
      "outputs": [
        {
          "internalType": "bool",
          "name": "",
          "type": "bool"
        }
      ],
      "stateMutability": "nonpayable",
      "type": "function"
    },
    {
      "inputs": [],
      "name": "name",
      "outputs": [
        {
          "internalType": "string",
          "name": "",
          "type": "string"
        }
      ],
      "stateMutability": "view",
      "type": "function"
    },
    {
      "inputs": [
        {
          "internalType": "uint256",
          "name": "tokenId",
          "type": "uint256"
        }
      ],
      "name": "ownerOf",
      "outputs": [
        {
          "internalType": "address",
          "name": "",
          "type": "address"
        }
      ],
      "stateMutability": "view",
      "type": "function"
    },
    {
      "inputs": [
        {
          "internalType": "address",
          "name": "from",
          "type": "address"
        },
        {
          "internalType": "address",
          "name": "to",
          "type": "address"
        },
        {
          "internalType": "uint256",
          "name": "tokenId",
          "type": "uint256"
        }
      ],
      "name": "safeTransferFrom",
      "outputs": [],
      "stateMutability": "nonpayable",
      "type": "function"
    },
    {
      "inputs": [
        {
          "internalType": "address",
          "name": "from",
          "type": "address"
        },
        {
          "internalType": "address",
          "name": "to",
          "type": "address"
        },
        {
          "internalType": "uint256",
          "name": "tokenId",
          "type": "uint256"
        },
        {
          "internalType": "bytes",
          "name": "data",
          "type": "bytes"
        }
      ],
      "name": "safeTransferFrom",
      "outputs": [],
      "stateMutability": "nonpayable",
      "type": "function"
    },
    {
      "inputs": [
        {
          "internalType": "address",
          "name": "operator",
          "type": "address"
        },
        {
          "internalType": "bool",
          "name": "approved",
          "type": "bool"
        }
      ],
      "name": "setApprovalForAll",
      "outputs": [],
      "stateMutability": "nonpayable",
      "type": "function"
    },
    {
      "inputs": [
        {
          "internalType": "bytes4",
          "name": "interfaceId",
          "type": "bytes4"
        }
      ],
      "name": "supportsInterface",
      "outputs": [
        {
          "internalType": "bool",
          "name": "",
          "type": "bool"
        }
      ],
      "stateMutability": "view",
      "type": "function"
    },
    {
      "inputs": [],
      "name": "symbol",
      "outputs": [
        {
          "internalType": "string",
          "name": "",
          "type": "string"
        }
      ],
      "stateMutability": "view",
      "type": "function"
    },
    {
      "inputs": [
        {
          "internalType": "uint256",
          "name": "tokenId",
          "type": "uint256"
        }
      ],
      "name": "tokenURI",
      "outputs": [
        {
          "internalType": "string",
          "name": "",
          "type": "string"
        }
      ],
      "stateMutability": "view",
      "type": "function"
    },
    {
      "inputs": [
        {
          "internalType": "address",
          "name": "from",
          "type": "address"
        },
        {
          "internalType": "address",
          "name": "to",
          "type": "address"
        },
        {
          "internalType": "uint256",
          "name": "tokenId",
          "type": "uint256"
        }
      ],
      "name": "transferFrom",
      "outputs": [],
      "stateMutability": "nonpayable",
      "type": "function"
    }
  ],
  "bytecode": "0x60a06040523480156200001157600080fd5b506040516200193a3803806200193a8339810160408190526200003491620000ab565b806040518060400160405280600a81526020016914dbdb185cda1a53919560b21b815250604051806040016040528060048152602001630a698a6960e31b815250816000908162000086919062000182565b50600162000095828262000182565b5050506001600160a01b0316608052506200024e565b600060208284031215620000be57600080fd5b81516001600160a01b0381168114620000d657600080fd5b9392505050565b634e487b7160e01b600052604160045260246000fd5b600181811c908216806200010857607f821691505b6020821081036200012957634e487b7160e01b600052602260045260246000fd5b50919050565b601f8211156200017d57600081815260208120601f850160051c81016020861015620001585750805b601f850160051c820191505b81811015620001795782815560010162000164565b5050505b505050565b81516001600160401b038111156200019e576200019e620000dd565b620001b681620001af8454620000f3565b846200012f565b602080601f831160018114620001ee5760008415620001d55750858301515b600019600386901b1c1916600185901b17855562000179565b600085815260208120601f198616915b828110156200021f57888601518255948401946001909101908401620001fe565b50858210156200023e5787850151600019600388901b60f8161c191681555b5050505050600190811b01905550565b6080516116c962000271600039600081816101ad0152610dfd01526116c96000f3fe608060405234801561001057600080fd5b50600436106100f55760003560e01c80636352211e11610097578063b88d4fde11610066578063b88d4fde1461022c578063c87b56dd1461023f578063d3fc986414610252578063e985e9c51461026557600080fd5b80636352211e146101dd57806370a08231146101f057806395d89b4114610211578063a22cb4651461021957600080fd5b8063095ea7b3116100d3578063095ea7b31461016257806323b872dd1461017757806342842e0e1461018a578063572b6c051461019d57600080fd5b806301ffc9a7146100fa57806306fdde0314610122578063081812fc14610137575b600080fd5b61010d6101083660046110c6565b6102a1565b60405190151581526020015b60405180910390f35b61012a6102f3565b6040516101199190611133565b61014a610145366004611146565b610385565b6040516001600160a01b039091168152602001610119565b61017561017036600461117b565b6103ac565b005b6101756101853660046111a5565b6104d8565b6101756101983660046111a5565b610510565b61010d6101ab3660046111e1565b7f00000000000000000000000000000000000000000000000000000000000000006001600160a01b0390811691161490565b61014a6101eb366004611146565b61052b565b6102036101fe3660046111e1565b61058b565b604051908152602001610119565b61012a610611565b6101756102273660046111fc565b610620565b61017561023a3660046112c4565b610636565b61012a61024d366004611146565b610675565b61010d610260366004611340565b610785565b61010d6102733660046113ab565b6001600160a01b03918216600090815260056020908152604080832093909416825291909152205460ff1690565b60006001600160e01b031982166380ac58cd60e01b14806102d257506001600160e01b03198216635b5e139f60e01b145b806102ed57506301ffc9a760e01b6001600160e01b03198316145b92915050565b606060008054610302906113de565b80601f016020809104026020016040519081016040528092919081815260200182805461032e906113de565b801561037b5780601f106103505761010080835404028352916020019161037b565b820191906000526020600020905b81548152906001019060200180831161035e57829003601f168201915b5050505050905090565b6000610390826107a5565b506000908152600460205260409020546001600160a01b031690565b60006103b78261052b565b9050806001600160a01b0316836001600160a01b0316036104295760405162461bcd60e51b815260206004820152602160248201527f4552433732313a20617070726f76616c20746f2063757272656e74206f776e656044820152603960f91b60648201526084015b60405180910390fd5b806001600160a01b031661043b610807565b6001600160a01b03161480610457575061045781610273610807565b6104c95760405162461bcd60e51b815260206004820152603d60248201527f4552433732313a20617070726f76652063616c6c6572206973206e6f7420746f60448201527f6b656e206f776e6572206f7220617070726f76656420666f7220616c6c0000006064820152608401610420565b6104d38383610816565b505050565b6104e96104e3610807565b82610884565b6105055760405162461bcd60e51b815260040161042090611418565b6104d3838383610902565b6104d383838360405180602001604052806000815250610636565b6000818152600260205260408120546001600160a01b0316806102ed5760405162461bcd60e51b8152602060048201526018602482015277115490cdcc8c4e881a5b9d985b1a59081d1bdad95b88125160421b6044820152606401610420565b60006001600160a01b0382166105f55760405162461bcd60e51b815260206004820152602960248201527f4552433732313a2061646472657373207a65726f206973206e6f7420612076616044820152683634b21037bbb732b960b91b6064820152608401610420565b506001600160a01b031660009081526003602052604090205490565b606060018054610302906113de565b61063261062b610807565b8383610a66565b5050565b610647610641610807565b83610884565b6106635760405162461bcd60e51b815260040161042090611418565b61066f84848484610b34565b50505050565b6060610680826107a5565b60008281526006602052604081208054610699906113de565b80601f01602080910402602001604051908101604052809291908181526020018280546106c5906113de565b80156107125780601f106106e757610100808354040283529160200191610712565b820191906000526020600020905b8154815290600101906020018083116106f557829003601f168201915b50505050509050600061073060408051602081019091526000815290565b90508051600003610742575092915050565b81511561077457808260405160200161075c929190611465565b60405160208183030381529060405292505050919050565b61077d84610b67565b949350505050565b60006107918484610bdb565b61079b8383610d66565b5060019392505050565b6000818152600260205260409020546001600160a01b03166108045760405162461bcd60e51b8152602060048201526018602482015277115490cdcc8c4e881a5b9d985b1a59081d1bdad95b88125160421b6044820152606401610420565b50565b6000610811610df9565b905090565b600081815260046020526040902080546001600160a01b0319166001600160a01b038416908117909155819061084b8261052b565b6001600160a01b03167f8c5be1e5ebec7d5bd14f71427d1e84f3dd0314c0f7b2291e5b200ac8c7c3b92560405160405180910390a45050565b6000806108908361052b565b9050806001600160a01b0316846001600160a01b031614806108d757506001600160a01b0380821660009081526005602090815260408083209388168352929052205460ff165b8061077d5750836001600160a01b03166108f084610385565b6001600160a01b031614949350505050565b826001600160a01b03166109158261052b565b6001600160a01b03161461093b5760405162461bcd60e51b815260040161042090611494565b6001600160a01b03821661099d5760405162461bcd60e51b8152602060048201526024808201527f4552433732313a207472616e7366657220746f20746865207a65726f206164646044820152637265737360e01b6064820152608401610420565b826001600160a01b03166109b08261052b565b6001600160a01b0316146109d65760405162461bcd60e51b815260040161042090611494565b600081815260046020908152604080832080546001600160a01b03199081169091556001600160a01b0387811680865260038552838620805460001901905590871680865283862080546001019055868652600290945282852080549092168417909155905184937fddf252ad1be2c89b69c2b068fc378daa952ba7f163c4a11628f55a4df523b3ef91a4505050565b816001600160a01b0316836001600160a01b031603610ac75760405162461bcd60e51b815260206004820152601960248201527f4552433732313a20617070726f766520746f2063616c6c6572000000000000006044820152606401610420565b6001600160a01b03838116600081815260056020908152604080832094871680845294825291829020805460ff191686151590811790915591519182527f17307eab39ab6107e8899845ad3d59bd9653f200f220920489ca2b5937696c31910160405180910390a3505050565b610b3f848484610902565b610b4b84848484610e3d565b61066f5760405162461bcd60e51b8152600401610420906114d9565b6060610b72826107a5565b6000610b8960408051602081019091526000815290565b90506000815111610ba95760405180602001604052806000815250610bd4565b80610bb384610f45565b604051602001610bc4929190611465565b6040516020818303038152906040525b9392505050565b6001600160a01b038216610c315760405162461bcd60e51b815260206004820181905260248201527f4552433732313a206d696e7420746f20746865207a65726f20616464726573736044820152606401610420565b6000818152600260205260409020546001600160a01b031615610c965760405162461bcd60e51b815260206004820152601c60248201527f4552433732313a20746f6b656e20616c7265616479206d696e746564000000006044820152606401610420565b6000818152600260205260409020546001600160a01b031615610cfb5760405162461bcd60e51b815260206004820152601c60248201527f4552433732313a20746f6b656e20616c7265616479206d696e746564000000006044820152606401610420565b6001600160a01b038216600081815260036020908152604080832080546001019055848352600290915280822080546001600160a01b0319168417905551839291907fddf252ad1be2c89b69c2b068fc378daa952ba7f163c4a11628f55a4df523b3ef908290a45050565b6000828152600260205260409020546001600160a01b0316610de15760405162461bcd60e51b815260206004820152602e60248201527f45524337323155524953746f726167653a2055524920736574206f66206e6f6e60448201526d32bc34b9ba32b73a103a37b5b2b760911b6064820152608401610420565b60008281526006602052604090206104d38282611579565b60007f00000000000000000000000000000000000000000000000000000000000000006001600160a01b03163303610e38575060131936013560601c90565b503390565b60006001600160a01b0384163b15610f3a57836001600160a01b031663150b7a02610e66610807565b8786866040518563ffffffff1660e01b8152600401610e889493929190611639565b6020604051808303816000875af1925050508015610ec3575060408051601f3d908101601f19168201909252610ec091810190611676565b60015b610f20573d808015610ef1576040519150601f19603f3d011682016040523d82523d6000602084013e610ef6565b606091505b508051600003610f185760405162461bcd60e51b8152600401610420906114d9565b805181602001fd5b6001600160e01b031916630a85bd0160e11b14905061077d565b506001949350505050565b60606000610f5283610fd8565b600101905060008167ffffffffffffffff811115610f7257610f72611238565b6040519080825280601f01601f191660200182016040528015610f9c576020820181803683370190505b5090508181016020015b600019016f181899199a1a9b1b9c1cb0b131b232b360811b600a86061a8153600a8504945084610fa657509392505050565b60008072184f03e93ff9f4daa797ed6e38ed64bf6a1f0160401b83106110175772184f03e93ff9f4daa797ed6e38ed64bf6a1f0160401b830492506040015b6d04ee2d6d415b85acef81000000008310611043576d04ee2d6d415b85acef8100000000830492506020015b662386f26fc10000831061106157662386f26fc10000830492506010015b6305f5e1008310611079576305f5e100830492506008015b612710831061108d57612710830492506004015b6064831061109f576064830492506002015b600a83106102ed5760010192915050565b6001600160e01b03198116811461080457600080fd5b6000602082840312156110d857600080fd5b8135610bd4816110b0565b60005b838110156110fe5781810151838201526020016110e6565b50506000910152565b6000815180845261111f8160208601602086016110e3565b601f01601f19169290920160200192915050565b602081526000610bd46020830184611107565b60006020828403121561115857600080fd5b5035919050565b80356001600160a01b038116811461117657600080fd5b919050565b6000806040838503121561118e57600080fd5b6111978361115f565b946020939093013593505050565b6000806000606084860312156111ba57600080fd5b6111c38461115f565b92506111d16020850161115f565b9150604084013590509250925092565b6000602082840312156111f357600080fd5b610bd48261115f565b6000806040838503121561120f57600080fd5b6112188361115f565b91506020830135801515811461122d57600080fd5b809150509250929050565b634e487b7160e01b600052604160045260246000fd5b600067ffffffffffffffff8084111561126957611269611238565b604051601f8501601f19908116603f0116810190828211818310171561129157611291611238565b816040528093508581528686860111156112aa57600080fd5b858560208301376000602087830101525050509392505050565b600080600080608085870312156112da57600080fd5b6112e38561115f565b93506112f16020860161115f565b925060408501359150606085013567ffffffffffffffff81111561131457600080fd5b8501601f8101871361132557600080fd5b6113348782356020840161124e565b91505092959194509250565b60008060006060848603121561135557600080fd5b61135e8461115f565b925060208401359150604084013567ffffffffffffffff81111561138157600080fd5b8401601f8101861361139257600080fd5b6113a18682356020840161124e565b9150509250925092565b600080604083850312156113be57600080fd5b6113c78361115f565b91506113d56020840161115f565b90509250929050565b600181811c908216806113f257607f821691505b60208210810361141257634e487b7160e01b600052602260045260246000fd5b50919050565b6020808252602d908201527f4552433732313a2063616c6c6572206973206e6f7420746f6b656e206f776e6560408201526c1c881bdc88185c1c1c9bdd9959609a1b606082015260800190565b600083516114778184602088016110e3565b83519083019061148b8183602088016110e3565b01949350505050565b60208082526025908201527f4552433732313a207472616e736665722066726f6d20696e636f72726563742060408201526437bbb732b960d91b606082015260800190565b60208082526032908201527f4552433732313a207472616e7366657220746f206e6f6e20455243373231526560408201527131b2b4bb32b91034b6b83632b6b2b73a32b960711b606082015260800190565b601f8211156104d357600081815260208120601f850160051c810160208610156115525750805b601f850160051c820191505b818110156115715782815560010161155e565b505050505050565b815167ffffffffffffffff81111561159357611593611238565b6115a7816115a184546113de565b8461152b565b602080601f8311600181146115dc57600084156115c45750858301515b600019600386901b1c1916600185901b178555611571565b600085815260208120601f198616915b8281101561160b578886015182559484019460019091019084016115ec565b50858210156116295787850151600019600388901b60f8161c191681555b5050505050600190811b01905550565b6001600160a01b038581168252841660208201526040810183905260806060820181905260009061166c90830184611107565b9695505050505050565b60006020828403121561168857600080fd5b8151610bd4816110b056fea26469706673582212208369754b4a76ba2f1892bbfe56b3d7b1f4da0b8bf829ce4d292a8f2135c7b61264736f6c63430008120033",
  "linkReferences": {},
  "deployedLinkReferences": {}
}