{
  "_format": "hh-sol-artifact-1",
  "contractName": "VaixDemo",
  "sourceName": "contracts/VaixDemo.sol",
  "abi": [
    {
      "inputs": [
        {
          "internalType": "contract MinimalForwarder",
          "name": "forwarder",
          "type": "address"
        }
      ],
      "stateMutability": "nonpayable",
      "type": "constructor"
    },
    {
      "anonymous": false,
      "inputs": [
        {
          "indexed": true,
          "internalType": "address",
          "name": "owner",
          "type": "address"
        },
        {
          "indexed": true,
          "internalType": "address",
          "name": "approved",
          "type": "address"
        },
        {
          "indexed": true,
          "internalType": "uint256",
          "name": "tokenId",
          "type": "uint256"
        }
      ],
      "name": "Approval",
      "type": "event"
    },
    {
      "anonymous": false,
      "inputs": [
        {
          "indexed": true,
          "internalType": "address",
          "name": "owner",
          "type": "address"
        },
        {
          "indexed": true,
          "internalType": "address",
          "name": "operator",
          "type": "address"
        },
        {
          "indexed": false,
          "internalType": "bool",
          "name": "approved",
          "type": "bool"
        }
      ],
      "name": "ApprovalForAll",
      "type": "event"
    },
    {
      "anonymous": false,
      "inputs": [
        {
          "indexed": true,
          "internalType": "address",
          "name": "from",
          "type": "address"
        },
        {
          "indexed": true,
          "internalType": "address",
          "name": "to",
          "type": "address"
        },
        {
          "indexed": true,
          "internalType": "uint256",
          "name": "tokenId",
          "type": "uint256"
        }
      ],
      "name": "Transfer",
      "type": "event"
    },
    {
      "inputs": [
        {
          "internalType": "address",
          "name": "to",
          "type": "address"
        },
        {
          "internalType": "uint256",
          "name": "tokenId",
          "type": "uint256"
        }
      ],
      "name": "approve",
      "outputs": [],
      "stateMutability": "nonpayable",
      "type": "function"
    },
    {
      "inputs": [
        {
          "internalType": "address",
          "name": "owner",
          "type": "address"
        }
      ],
      "name": "balanceOf",
      "outputs": [
        {
          "internalType": "uint256",
          "name": "",
          "type": "uint256"
        }
      ],
      "stateMutability": "view",
      "type": "function"
    },
    {
      "inputs": [],
      "name": "baseTokenURI",
      "outputs": [
        {
          "internalType": "string",
          "name": "",
          "type": "string"
        }
      ],
      "stateMutability": "view",
      "type": "function"
    },
    {
      "inputs": [
        {
          "internalType": "uint256",
          "name": "tokenId",
          "type": "uint256"
        }
      ],
      "name": "getApproved",
      "outputs": [
        {
          "internalType": "address",
          "name": "",
          "type": "address"
        }
      ],
      "stateMutability": "view",
      "type": "function"
    },
    {
      "inputs": [
        {
          "internalType": "address",
          "name": "owner",
          "type": "address"
        },
        {
          "internalType": "address",
          "name": "operator",
          "type": "address"
        }
      ],
      "name": "isApprovedForAll",
      "outputs": [
        {
          "internalType": "bool",
          "name": "",
          "type": "bool"
        }
      ],
      "stateMutability": "view",
      "type": "function"
    },
    {
      "inputs": [
        {
          "internalType": "address",
          "name": "forwarder",
          "type": "address"
        }
      ],
      "name": "isTrustedForwarder",
      "outputs": [
        {
          "internalType": "bool",
          "name": "",
          "type": "bool"
        }
      ],
      "stateMutability": "view",
      "type": "function"
    },
    {
      "inputs": [
        {
          "internalType": "address",
          "name": "recipient",
          "type": "address"
        }
      ],
      "name": "mintTo",
      "outputs": [
        {
          "internalType": "uint256",
          "name": "",
          "type": "uint256"
        }
      ],
      "stateMutability": "nonpayable",
      "type": "function"
    },
    {
      "inputs": [],
      "name": "name",
      "outputs": [
        {
          "internalType": "string",
          "name": "",
          "type": "string"
        }
      ],
      "stateMutability": "view",
      "type": "function"
    },
    {
      "inputs": [
        {
          "internalType": "uint256",
          "name": "tokenId",
          "type": "uint256"
        }
      ],
      "name": "ownerOf",
      "outputs": [
        {
          "internalType": "address",
          "name": "",
          "type": "address"
        }
      ],
      "stateMutability": "view",
      "type": "function"
    },
    {
      "inputs": [
        {
          "internalType": "address",
          "name": "from",
          "type": "address"
        },
        {
          "internalType": "address",
          "name": "to",
          "type": "address"
        },
        {
          "internalType": "uint256",
          "name": "tokenId",
          "type": "uint256"
        }
      ],
      "name": "safeTransferFrom",
      "outputs": [],
      "stateMutability": "nonpayable",
      "type": "function"
    },
    {
      "inputs": [
        {
          "internalType": "address",
          "name": "from",
          "type": "address"
        },
        {
          "internalType": "address",
          "name": "to",
          "type": "address"
        },
        {
          "internalType": "uint256",
          "name": "tokenId",
          "type": "uint256"
        },
        {
          "internalType": "bytes",
          "name": "data",
          "type": "bytes"
        }
      ],
      "name": "safeTransferFrom",
      "outputs": [],
      "stateMutability": "nonpayable",
      "type": "function"
    },
    {
      "inputs": [
        {
          "internalType": "address",
          "name": "operator",
          "type": "address"
        },
        {
          "internalType": "bool",
          "name": "approved",
          "type": "bool"
        }
      ],
      "name": "setApprovalForAll",
      "outputs": [],
      "stateMutability": "nonpayable",
      "type": "function"
    },
    {
      "inputs": [
        {
          "internalType": "string",
          "name": "_baseTokenURI",
          "type": "string"
        }
      ],
      "name": "setBaseTokenURI",
      "outputs": [],
      "stateMutability": "nonpayable",
      "type": "function"
    },
    {
      "inputs": [
        {
          "internalType": "bytes4",
          "name": "interfaceId",
          "type": "bytes4"
        }
      ],
      "name": "supportsInterface",
      "outputs": [
        {
          "internalType": "bool",
          "name": "",
          "type": "bool"
        }
      ],
      "stateMutability": "view",
      "type": "function"
    },
    {
      "inputs": [],
      "name": "symbol",
      "outputs": [
        {
          "internalType": "string",
          "name": "",
          "type": "string"
        }
      ],
      "stateMutability": "view",
      "type": "function"
    },
    {
      "inputs": [
        {
          "internalType": "uint256",
          "name": "tokenId",
          "type": "uint256"
        }
      ],
      "name": "tokenURI",
      "outputs": [
        {
          "internalType": "string",
          "name": "",
          "type": "string"
        }
      ],
      "stateMutability": "view",
      "type": "function"
    },
    {
      "inputs": [
        {
          "internalType": "address",
          "name": "from",
          "type": "address"
        },
        {
          "internalType": "address",
          "name": "to",
          "type": "address"
        },
        {
          "internalType": "uint256",
          "name": "tokenId",
          "type": "uint256"
        }
      ],
      "name": "transferFrom",
      "outputs": [],
      "stateMutability": "nonpayable",
      "type": "function"
    }
  ],
  "bytecode": "0x60a06040523480156200001157600080fd5b50604051620018b4380380620018b48339810160408190526200003491620000c8565b80604051806040016040528060088152602001675641495844454d4f60c01b815250604051806040016040528060048152602001631590525160e21b81525081600090816200008491906200019f565b5060016200009382826200019f565b5050506001600160a01b0316608052604080516020810190915260008152600790620000c090826200019f565b50506200026b565b600060208284031215620000db57600080fd5b81516001600160a01b0381168114620000f357600080fd5b9392505050565b634e487b7160e01b600052604160045260246000fd5b600181811c908216806200012557607f821691505b6020821081036200014657634e487b7160e01b600052602260045260246000fd5b50919050565b601f8211156200019a57600081815260208120601f850160051c81016020861015620001755750805b601f850160051c820191505b81811015620001965782815560010162000181565b5050505b505050565b81516001600160401b03811115620001bb57620001bb620000fa565b620001d381620001cc845462000110565b846200014c565b602080601f8311600181146200020b5760008415620001f25750858301515b600019600386901b1c1916600185901b17855562000196565b600085815260208120601f198616915b828110156200023c578886015182559484019460019091019084016200021b565b50858210156200025b5787850151600019600388901b60f8161c191681555b5050505050600190811b01905550565b6080516116266200028e600039600081816101d60152610c5101526116266000f3fe608060405234801561001057600080fd5b506004361061010b5760003560e01c80636352211e116100a2578063a22cb46511610071578063a22cb46514610255578063b88d4fde14610268578063c87b56dd1461027b578063d547cfb71461028e578063e985e9c51461029657600080fd5b80636352211e1461020657806370a0823114610219578063755edd171461023a57806395d89b411461024d57600080fd5b806323b872dd116100de57806323b872dd1461018d57806330176e13146101a057806342842e0e146101b3578063572b6c05146101c657600080fd5b806301ffc9a71461011057806306fdde0314610138578063081812fc1461014d578063095ea7b314610178575b600080fd5b61012361011e366004611045565b6102d2565b60405190151581526020015b60405180910390f35b610140610324565b60405161012f91906110b2565b61016061015b3660046110c5565b6103b6565b6040516001600160a01b03909116815260200161012f565b61018b6101863660046110fa565b6103dd565b005b61018b61019b366004611124565b610509565b61018b6101ae3660046111ec565b610541565b61018b6101c1366004611124565b610551565b6101236101d4366004611235565b7f00000000000000000000000000000000000000000000000000000000000000006001600160a01b0390811691161490565b6101606102143660046110c5565b61056c565b61022c610227366004611235565b6105cc565b60405190815260200161012f565b61022c610248366004611235565b610652565b610140610679565b61018b610263366004611250565b610688565b61018b61027636600461128c565b61069a565b6101406102893660046110c5565b6106d9565b610140610740565b6101236102a4366004611308565b6001600160a01b03918216600090815260056020908152604080832093909416825291909152205460ff1690565b60006001600160e01b031982166380ac58cd60e01b148061030357506001600160e01b03198216635b5e139f60e01b145b8061031e57506301ffc9a760e01b6001600160e01b03198316145b92915050565b6060600080546103339061133b565b80601f016020809104026020016040519081016040528092919081815260200182805461035f9061133b565b80156103ac5780601f10610381576101008083540402835291602001916103ac565b820191906000526020600020905b81548152906001019060200180831161038f57829003601f168201915b5050505050905090565b60006103c1826107ce565b506000908152600460205260409020546001600160a01b031690565b60006103e88261056c565b9050806001600160a01b0316836001600160a01b03160361045a5760405162461bcd60e51b815260206004820152602160248201527f4552433732313a20617070726f76616c20746f2063757272656e74206f776e656044820152603960f91b60648201526084015b60405180910390fd5b806001600160a01b031661046c610830565b6001600160a01b031614806104885750610488816102a4610830565b6104fa5760405162461bcd60e51b815260206004820152603d60248201527f4552433732313a20617070726f76652063616c6c6572206973206e6f7420746f60448201527f6b656e206f776e6572206f7220617070726f76656420666f7220616c6c0000006064820152608401610451565b610504838361083f565b505050565b61051a610514610830565b826108ad565b6105365760405162461bcd60e51b815260040161045190611375565b61050483838361092c565b600761054d8282611410565b5050565b6105048383836040518060200160405280600081525061069a565b6000818152600260205260408120546001600160a01b03168061031e5760405162461bcd60e51b8152602060048201526018602482015277115490cdcc8c4e881a5b9d985b1a59081d1bdad95b88125160421b6044820152606401610451565b60006001600160a01b0382166106365760405162461bcd60e51b815260206004820152602960248201527f4552433732313a2061646472657373207a65726f206973206e6f7420612076616044820152683634b21037bbb732b960b91b6064820152608401610451565b506001600160a01b031660009081526003602052604090205490565b6000610662600680546001019055565b600061066d60065490565b905061031e8382610a90565b6060600180546103339061133b565b61054d610693610830565b8383610aaa565b6106ab6106a5610830565b836108ad565b6106c75760405162461bcd60e51b815260040161045190611375565b6106d384848484610b78565b50505050565b60606106e4826107ce565b60006106ee610bab565b9050600081511161070e5760405180602001604052806000815250610739565b8061071884610bba565b6040516020016107299291906114d0565b6040516020818303038152906040525b9392505050565b6007805461074d9061133b565b80601f01602080910402602001604051908101604052809291908181526020018280546107799061133b565b80156107c65780601f1061079b576101008083540402835291602001916107c6565b820191906000526020600020905b8154815290600101906020018083116107a957829003601f168201915b505050505081565b6000818152600260205260409020546001600160a01b031661082d5760405162461bcd60e51b8152602060048201526018602482015277115490cdcc8c4e881a5b9d985b1a59081d1bdad95b88125160421b6044820152606401610451565b50565b600061083a610c4d565b905090565b600081815260046020526040902080546001600160a01b0319166001600160a01b03841690811790915581906108748261056c565b6001600160a01b03167f8c5be1e5ebec7d5bd14f71427d1e84f3dd0314c0f7b2291e5b200ac8c7c3b92560405160405180910390a45050565b6000806108b98361056c565b9050806001600160a01b0316846001600160a01b0316148061090057506001600160a01b0380821660009081526005602090815260408083209388168352929052205460ff165b806109245750836001600160a01b0316610919846103b6565b6001600160a01b0316145b949350505050565b826001600160a01b031661093f8261056c565b6001600160a01b0316146109655760405162461bcd60e51b8152600401610451906114ff565b6001600160a01b0382166109c75760405162461bcd60e51b8152602060048201526024808201527f4552433732313a207472616e7366657220746f20746865207a65726f206164646044820152637265737360e01b6064820152608401610451565b826001600160a01b03166109da8261056c565b6001600160a01b031614610a005760405162461bcd60e51b8152600401610451906114ff565b600081815260046020908152604080832080546001600160a01b03199081169091556001600160a01b0387811680865260038552838620805460001901905590871680865283862080546001019055868652600290945282852080549092168417909155905184937fddf252ad1be2c89b69c2b068fc378daa952ba7f163c4a11628f55a4df523b3ef91a4505050565b61054d828260405180602001604052806000815250610c91565b816001600160a01b0316836001600160a01b031603610b0b5760405162461bcd60e51b815260206004820152601960248201527f4552433732313a20617070726f766520746f2063616c6c6572000000000000006044820152606401610451565b6001600160a01b03838116600081815260056020908152604080832094871680845294825291829020805460ff191686151590811790915591519182527f17307eab39ab6107e8899845ad3d59bd9653f200f220920489ca2b5937696c31910160405180910390a3505050565b610b8384848461092c565b610b8f84848484610cc4565b6106d35760405162461bcd60e51b815260040161045190611544565b6060600780546103339061133b565b60606000610bc783610dcc565b600101905060008167ffffffffffffffff811115610be757610be7611160565b6040519080825280601f01601f191660200182016040528015610c11576020820181803683370190505b5090508181016020015b600019016f181899199a1a9b1b9c1cb0b131b232b360811b600a86061a8153600a8504945084610c1b57509392505050565b60007f00000000000000000000000000000000000000000000000000000000000000006001600160a01b03163303610c8c575060131936013560601c90565b503390565b610c9b8383610ea4565b610ca86000848484610cc4565b6105045760405162461bcd60e51b815260040161045190611544565b60006001600160a01b0384163b15610dc157836001600160a01b031663150b7a02610ced610830565b8786866040518563ffffffff1660e01b8152600401610d0f9493929190611596565b6020604051808303816000875af1925050508015610d4a575060408051601f3d908101601f19168201909252610d47918101906115d3565b60015b610da7573d808015610d78576040519150601f19603f3d011682016040523d82523d6000602084013e610d7d565b606091505b508051600003610d9f5760405162461bcd60e51b815260040161045190611544565b805181602001fd5b6001600160e01b031916630a85bd0160e11b149050610924565b506001949350505050565b60008072184f03e93ff9f4daa797ed6e38ed64bf6a1f0160401b8310610e0b5772184f03e93ff9f4daa797ed6e38ed64bf6a1f0160401b830492506040015b6d04ee2d6d415b85acef81000000008310610e37576d04ee2d6d415b85acef8100000000830492506020015b662386f26fc100008310610e5557662386f26fc10000830492506010015b6305f5e1008310610e6d576305f5e100830492506008015b6127108310610e8157612710830492506004015b60648310610e93576064830492506002015b600a831061031e5760010192915050565b6001600160a01b038216610efa5760405162461bcd60e51b815260206004820181905260248201527f4552433732313a206d696e7420746f20746865207a65726f20616464726573736044820152606401610451565b6000818152600260205260409020546001600160a01b031615610f5f5760405162461bcd60e51b815260206004820152601c60248201527f4552433732313a20746f6b656e20616c7265616479206d696e746564000000006044820152606401610451565b6000818152600260205260409020546001600160a01b031615610fc45760405162461bcd60e51b815260206004820152601c60248201527f4552433732313a20746f6b656e20616c7265616479206d696e746564000000006044820152606401610451565b6001600160a01b038216600081815260036020908152604080832080546001019055848352600290915280822080546001600160a01b0319168417905551839291907fddf252ad1be2c89b69c2b068fc378daa952ba7f163c4a11628f55a4df523b3ef908290a45050565b6001600160e01b03198116811461082d57600080fd5b60006020828403121561105757600080fd5b81356107398161102f565b60005b8381101561107d578181015183820152602001611065565b50506000910152565b6000815180845261109e816020860160208601611062565b601f01601f19169290920160200192915050565b6020815260006107396020830184611086565b6000602082840312156110d757600080fd5b5035919050565b80356001600160a01b03811681146110f557600080fd5b919050565b6000806040838503121561110d57600080fd5b611116836110de565b946020939093013593505050565b60008060006060848603121561113957600080fd5b611142846110de565b9250611150602085016110de565b9150604084013590509250925092565b634e487b7160e01b600052604160045260246000fd5b600067ffffffffffffffff8084111561119157611191611160565b604051601f8501601f19908116603f011681019082821181831017156111b9576111b9611160565b816040528093508581528686860111156111d257600080fd5b858560208301376000602087830101525050509392505050565b6000602082840312156111fe57600080fd5b813567ffffffffffffffff81111561121557600080fd5b8201601f8101841361122657600080fd5b61092484823560208401611176565b60006020828403121561124757600080fd5b610739826110de565b6000806040838503121561126357600080fd5b61126c836110de565b91506020830135801515811461128157600080fd5b809150509250929050565b600080600080608085870312156112a257600080fd5b6112ab856110de565b93506112b9602086016110de565b925060408501359150606085013567ffffffffffffffff8111156112dc57600080fd5b8501601f810187136112ed57600080fd5b6112fc87823560208401611176565b91505092959194509250565b6000806040838503121561131b57600080fd5b611324836110de565b9150611332602084016110de565b90509250929050565b600181811c9082168061134f57607f821691505b60208210810361136f57634e487b7160e01b600052602260045260246000fd5b50919050565b6020808252602d908201527f4552433732313a2063616c6c6572206973206e6f7420746f6b656e206f776e6560408201526c1c881bdc88185c1c1c9bdd9959609a1b606082015260800190565b601f82111561050457600081815260208120601f850160051c810160208610156113e95750805b601f850160051c820191505b81811015611408578281556001016113f5565b505050505050565b815167ffffffffffffffff81111561142a5761142a611160565b61143e81611438845461133b565b846113c2565b602080601f831160018114611473576000841561145b5750858301515b600019600386901b1c1916600185901b178555611408565b600085815260208120601f198616915b828110156114a257888601518255948401946001909101908401611483565b50858210156114c05787850151600019600388901b60f8161c191681555b5050505050600190811b01905550565b600083516114e2818460208801611062565b8351908301906114f6818360208801611062565b01949350505050565b60208082526025908201527f4552433732313a207472616e736665722066726f6d20696e636f72726563742060408201526437bbb732b960d91b606082015260800190565b60208082526032908201527f4552433732313a207472616e7366657220746f206e6f6e20455243373231526560408201527131b2b4bb32b91034b6b83632b6b2b73a32b960711b606082015260800190565b6001600160a01b03858116825284166020820152604081018390526080606082018190526000906115c990830184611086565b9695505050505050565b6000602082840312156115e557600080fd5b81516107398161102f56fea2646970667358221220d80eb5d3cb19f51694e0aaafeb25849f3f5c1b49862fb4dcc07a275a4461474364736f6c63430008120033",
  "linkReferences": {},
  "deployedLinkReferences": {}
}